{
    "_format": "hh-sol-artifact-1",
    "contractName": "Transactions",
    "sourceName": "contracts/Transactions.sol",
    "abi": [
        {
            "anonymous": false,
            "inputs": [
                {
                    "indexed": false,
                    "internalType": "address",
                    "name": "from",
                    "type": "address"
                },
                {
                    "indexed": false,
                    "internalType": "address",
                    "name": "receiver",
                    "type": "address"
                },
                {
                    "indexed": false,
                    "internalType": "uint256",
                    "name": "amount",
                    "type": "uint256"
                },
                {
                    "indexed": false,
                    "internalType": "string",
                    "name": "message",
                    "type": "string"
                },
                {
                    "indexed": false,
                    "internalType": "uint256",
                    "name": "timestamp",
                    "type": "uint256"
                }
            ],
            "name": "Transfer",
            "type": "event"
        },
        {
            "inputs": [
                {
                    "internalType": "address payable",
                    "name": "receiver",
                    "type": "address"
                },
                {
                    "internalType": "uint256",
                    "name": "amount",
                    "type": "uint256"
                },
                {
                    "internalType": "string",
                    "name": "message",
                    "type": "string"
                }
            ],
            "name": "addToBlockchain",
            "outputs": [],
            "stateMutability": "nonpayable",
            "type": "function"
        },
        {
            "inputs": [],
            "name": "getAllTransactions",
            "outputs": [
                {
                    "components": [
                        {
                            "internalType": "address",
                            "name": "sender",
                            "type": "address"
                        },
                        {
                            "internalType": "address",
                            "name": "receiver",
                            "type": "address"
                        },
                        {
                            "internalType": "uint256",
                            "name": "amount",
                            "type": "uint256"
                        },
                        {
                            "internalType": "string",
                            "name": "message",
                            "type": "string"
                        },
                        {
                            "internalType": "uint256",
                            "name": "timestamp",
                            "type": "uint256"
                        }
                    ],
                    "internalType": "struct Transactions.TransferStruct[]",
                    "name": "",
                    "type": "tuple[]"
                }
            ],
            "stateMutability": "view",
            "type": "function"
        },
        {
            "inputs": [],
            "name": "getTransactionCount",
            "outputs": [
                {
                    "internalType": "uint256",
                    "name": "",
                    "type": "uint256"
                }
            ],
            "stateMutability": "view",
            "type": "function"
        }
    ],
    "bytecode": "0x608060405234801561001057600080fd5b50610b1c806100206000396000f3fe608060405234801561001057600080fd5b50600436106100415760003560e01c806327506f53146100465780632e7700f014610064578063eb12da4a14610082575b600080fd5b61004e61009e565b60405161005b91906107a2565b60405180910390f35b61006c61024f565b60405161007991906107c4565b60405180910390f35b61009c60048036038101906100979190610525565b610258565b005b60606001805480602002602001604051908101604052809291908181526020016000905b8282101561024657838290600052602060002090600502016040518060a00160405290816000820160009054906101000a900473ffffffffffffffffffffffffffffffffffffffff1673ffffffffffffffffffffffffffffffffffffffff1673ffffffffffffffffffffffffffffffffffffffff1681526020016001820160009054906101000a900473ffffffffffffffffffffffffffffffffffffffff1673ffffffffffffffffffffffffffffffffffffffff1673ffffffffffffffffffffffffffffffffffffffff168152602001600282015481526020016003820180546101ab906109b7565b80601f01602080910402602001604051908101604052809291908181526020018280546101d7906109b7565b80156102245780601f106101f957610100808354040283529160200191610224565b820191906000526020600020905b81548152906001019060200180831161020757829003601f168201915b50505050508152602001600482015481525050815260200190600101906100c2565b50505050905090565b60008054905090565b6001600054610267919061089b565b60008190555060016040518060a001604052803373ffffffffffffffffffffffffffffffffffffffff1681526020018573ffffffffffffffffffffffffffffffffffffffff16815260200184815260200183815260200142815250908060018154018082558091505060019003906000526020600020906005020160009091909190915060008201518160000160006101000a81548173ffffffffffffffffffffffffffffffffffffffff021916908373ffffffffffffffffffffffffffffffffffffffff16021790555060208201518160010160006101000a81548173ffffffffffffffffffffffffffffffffffffffff021916908373ffffffffffffffffffffffffffffffffffffffff16021790555060408201518160020155606082015181600301908051906020019061039f9291906103f0565b506080820151816004015550507fc4b32d7ff75a51e487f3cbb5d3202f2efecca1f4c2b987e0039c1d3220b48a8333848484426040516103e3959493929190610748565b60405180910390a1505050565b8280546103fc906109b7565b90600052602060002090601f01602090048101928261041e5760008555610465565b82601f1061043757805160ff1916838001178555610465565b82800160010185558215610465579182015b82811115610464578251825591602001919060010190610449565b5b5090506104729190610476565b5090565b5b8082111561048f576000816000905550600101610477565b5090565b60006104a66104a184610804565b6107df565b9050828152602081018484840111156104be57600080fd5b6104c9848285610975565b509392505050565b6000813590506104e081610ab8565b92915050565b600082601f8301126104f757600080fd5b8135610507848260208601610493565b91505092915050565b60008135905061051f81610acf565b92915050565b60008060006060848603121561053a57600080fd5b6000610548868287016104d1565b935050602061055986828701610510565b925050604084013567ffffffffffffffff81111561057657600080fd5b610582868287016104e6565b9150509250925092565b600061059883836106b4565b905092915050565b6105a98161093f565b82525050565b6105b8816108f1565b82525050565b6105c7816108f1565b82525050565b60006105d882610845565b6105e28185610868565b9350836020820285016105f485610835565b8060005b858110156106305784840389528151610611858261058c565b945061061c8361085b565b925060208a019950506001810190506105f8565b50829750879550505050505092915050565b600061064d82610850565b6106578185610879565b9350610667818560208601610984565b61067081610aa7565b840191505092915050565b600061068682610850565b610690818561088a565b93506106a0818560208601610984565b6106a981610aa7565b840191505092915050565b600060a0830160008301516106cc60008601826105af565b5060208301516106df60208601826105af565b5060408301516106f2604086018261072a565b506060830151848203606086015261070a8282610642565b915050608083015161071f608086018261072a565b508091505092915050565b61073381610935565b82525050565b61074281610935565b82525050565b600060a08201905061075d60008301886105be565b61076a60208301876105a0565b6107776040830186610739565b8181036060830152610789818561067b565b90506107986080830184610739565b9695505050505050565b600060208201905081810360008301526107bc81846105cd565b905092915050565b60006020820190506107d96000830184610739565b92915050565b60006107e96107fa565b90506107f582826109e9565b919050565b6000604051905090565b600067ffffffffffffffff82111561081f5761081e610a78565b5b61082882610aa7565b9050602081019050919050565b6000819050602082019050919050565b600081519050919050565b600081519050919050565b6000602082019050919050565b600082825260208201905092915050565b600082825260208201905092915050565b600082825260208201905092915050565b60006108a682610935565b91506108b183610935565b9250827fffffffffffffffffffffffffffffffffffffffffffffffffffffffffffffffff038211156108e6576108e5610a1a565b5b828201905092915050565b60006108fc82610915565b9050919050565b600061090e82610915565b9050919050565b600073ffffffffffffffffffffffffffffffffffffffff82169050919050565b6000819050919050565b600061094a82610951565b9050919050565b600061095c82610963565b9050919050565b600061096e82610915565b9050919050565b82818337600083830152505050565b60005b838110156109a2578082015181840152602081019050610987565b838111156109b1576000848401525b50505050565b600060028204905060018216806109cf57607f821691505b602082108114156109e3576109e2610a49565b5b50919050565b6109f282610aa7565b810181811067ffffffffffffffff82111715610a1157610a10610a78565b5b80604052505050565b7f4e487b7100000000000000000000000000000000000000000000000000000000600052601160045260246000fd5b7f4e487b7100000000000000000000000000000000000000000000000000000000600052602260045260246000fd5b7f4e487b7100000000000000000000000000000000000000000000000000000000600052604160045260246000fd5b6000601f19601f8301169050919050565b610ac181610903565b8114610acc57600080fd5b50565b610ad881610935565b8114610ae357600080fd5b5056fea26469706673582212205d85f3e0d12e5ad2e063a5c755176a26620800fc6a99ff24fab50076af51239064736f6c63430008040033",
    "linkReferences": {},
    "deployedLinkReferences": {}
}